:020000040800F2
:10000000784A002099010008FD250008C31B00085C
:10001000F92500084D0E000899280008000000008E
:1000200000000000000000000000000001010008C6
:10003000510E0008000000004501000829260008B4
:10004000B3010008B3010008B3010008B3010008C0
:10005000B3010008B3010008B3010008B3010008B0
:10006000B3010008B3010008B3010008B3010008A0
:10007000B3010008B3010008B3010008B301000890
:10008000B3010008B3010008B3010008B301000880
:10009000B3010008B3010008B3010008B301000870
:1000A000B3010008B3010008B3010008B301000860
:1000B000B3010008B3010008B3010008B301000850
:1000C000B3010008B3010008B3010008B301000840
:1000D000B3010008B3010008B3010008B301000830
:1000E000B3010008B3010008B3010008DFF80CD029
:1000F00000F08CF800480047E92A0008784A002000
:10010000224B19680868B0E8F00F80F30988BFF344
:100110006F8F4FF0000080F311884EF00D0E704786
:100120000000000006480068006880F3088862B696
:1001300061B6BFF34F8FBFF36F8F00DF00BF00BF0B
:1001400008ED00E0EFF30980BFF36F8F0F4B1A68E3
:1001500020E9F00F106008B54FF0BF0080F3118860
:10016000BFF34F8FBFF36F8F03F0EAF94FF000003A
:1001700080F31188BDE8084019680868B0E8F00FFE
:1001800080F30988BFF36F8F704700BF1000002015
:10019000EFF3058070470000064880470648004797
:1001A000FEE7FEE7FEE7FEE7FEE7FEE7FEE7FEE727
:1001B000FEE7FEE7A3260008ED000008D2B201E04A
:1001C00000F8012B491EFBD270470022F6E710B55C
:1001D00013460A4604461946FFF7F0FF204610BDB5
:1001E00030B50B46014600202022012409E021FA07
:1001F00002F59D4205D303FA02F5491B04FA02F504
:100200002844151EA2F10102F1DC30BD064C074D59
:1002100006E0E06840F0010394E8070098471034D6
:10022000AC42F6D3FFF766FFB4390008D4390008B2
:1002300070B58C1810F8015B15F0070301D110F8A8
:10024000013B2A1106D110F8012B03E010F8016BD5
:1002500001F8016B5B1EF9D12B0705D40023521E58
:100260000DD401F8013BFAE710F8013BCB1A921CC0
:1002700003E013F8015B01F8015B521EF9D5A142BE
:10028000D8D3002070BD2DE9F04704468C2001F042
:100290007DFD074607F00F00391101EB810100EBEE
:1002A000410000F5FA602080882001F06FFD804653
:1002B00008F00F004FEA281101EB810100EB41002B
:1002C000A070862001F062FD814609F00F004FEA20
:1002D000291101EB810100EB4100E0708A2001F05F
:1002E00055FD82460AF00F00E071842001F04EFDBA
:1002F000054605F08000A8B10120607205F02000DD
:1003000010B10120207201E00020207205F01000E1
:1003100020B105F00F000A30207118E005F00F0041
:10032000207114E00020607205F0200020B105F07B
:100330000F00143020710AE005F0100020B105F024
:100340000F000A30207102E005F00F002071607A82
:1003500038B1207A28B120790C3040B220710020C9
:100360006072822001F012FD064606F00F00311186
:1003700001EB810100EB410040B26071BDE8F08704
:100380002DE9F04F87B0044600218E2001F05EFD7C
:100390002088642190FBF1F201FB12000A2190FBFE
:1003A000F1F080B20690208890FBF1F201FB120080
:1003B00080B20590DDE9050240EA0210C1B28C204E
:1003C00001F044FDA0780A2190FBF1F080B2049086
:1003D000A07890FBF1F201FB120080B20390049828
:1003E00000F00102039840EA0210C1B2882001F037
:1003F0002DFDE0780A2190FBF1F080B20290E078C8
:1004000090FBF1F201FB120080B20190029800F023
:100410000302019840EA0210C1B2862001F016FDE5
:1004200094F904000C2818DD94F904000A2190FBCB
:10043000F1F000F0FF0B94F9040090FBF1F201FBE6
:100440001200C0B20090A02040EA0B10009A1043A6
:10045000C1B2842001F0FAFC18E094F904000A21EA
:1004600090FBF1F000F0FF0B94F9040090FBF1F227
:1004700001FB1200C0B20090802040EA0B10009AED
:100480001043C1B2842001F0E1FC00BF94F90500E3
:100490000A2190FBF1F000F0FF0994F9050090FBB0
:1004A000F1F201FB120000F0FF0A4AEA0910C1B2A2
:1004B000822001F0CBFC0021802001F0C7FC2588C0
:1004C000642095FBF0F0C7B294F80280B8F1010FF8
:1004D00002D0B8F1020F05D1681E85B208F10C00F8
:1004E0001FFA80F808F101021A235A430A2392FBEB
:1004F000F3F2EB1705EB937305EBA3034FEAE77CED
:1005000007EB9C7C03EBAC034FF0020C0CFB1733A6
:100510001A44E3781A44521E16B201E0F01D06B2E6
:10052000002EFBDB072096FBF0F100FB116606B9FD
:100530000726F1B28A2001F089FC07B0BDE8F08FF0
:100540001CB51A48012100238022CDE9001018A112
:10055000194803F059F81948022100238022CDE9F7
:10056000001017A1184803F04FF818480321002382
:100570008022CDE9001016A1174803F045F817486E
:10058000042100238022CDE9001015A1164803F0B4
:100590003BF81648042100238022CDE9001014A165
:1005A000154803F031F802F08DFF1CBD70000020EB
:1005B000636F6C6C656374008D31000878000020F7
:1005C00073686F7700000000D131000888000020B8
:1005D00073776974636800005D320008980000203A
:1005E000616C61726D00000035300008A0000020D1
:1005F000766F6C756D650000C132000810B501F0B2
:1006000091FC03F045F80149086010BDA8000020E6
:100610002DE9FC4104460F4690461D4603F038F88C
:1006200018490968401AB0F5FA7F0BD316480078CC
:1006300008B9012000E000201349087003F028F8F1
:1006400010490860607A28B1207A18B120790C30FE
:10065000C6B200E02679287848B10C2E05DDA6F157
:100660000C00C6B20120687001E000206870CDE97E
:10067000008561793B4604480278304601F0F4FD7C
:10068000BDE8FC81A8000020A40000202DE9FC4169
:1006900007460E4615461C4602F0FAFF3149096826
:1006A000401AB0F5FA7F0BD32F48007808B9012023
:1006B00000E000202C49087002F0EAFF2949086098
:1006C0002A48007810B1012848D123E02648007854
:1006D000B8B1E07848B12649CDE9005408783346EE
:1006E0000122FF2101F0C0FD13E0207988B12149EA
:1006F000CDE90054087833460122FF2101F0B4FD12
:1007000007E033460122FF210846CDE9005401F0FD
:10071000ABFD24E014480078B8B1E07848B1144843
:10072000CDE90054417833460122FF2001F09CFDC1
:1007300013E0207988B10F48CDE900544178334661
:100740000122FF2001F090FD07E033460122FF2146
:100750000846CDE9005401F087FD00E000BF00BF6E
:10076000BDE8FC81A8000020A40000208500002036
:100770008E000020920000202DE9FC4706460F461F
:1007800014461D4602F084FF4D490968401AB0F531
:10079000FA7F0BD34B48007808B9012000E0002015
:1007A0004849087002F074FF4549086046480078DF
:1007B000052877D2DFE800F0032B40556A00414856
:1007C0000078A8B13088642190FBF1F201FB12009F
:1007D00000F0FF08308890FBF1F000F0FF093B4685
:1007E000002241464846CDE9004501F03DFD0DE0BF
:1007F0003088642190FBF1F000F0FF083B460022B6
:10080000FF214046CDE9004501F02EFD55E02D4881
:10081000007840B1CDE90045B0783B460022FF2189
:1008200001F022FD07E03B460022FF210846CDE90A
:10083000004501F019FD40E02248007840B1CDE9C3
:100840000045F1783B460022FF2001F00DFD07E056
:100850003B460022FF210846CDE9004501F004FD9A
:100860002BE01848007840B1CDE9004530793B468F
:100870000122FF2101F0F8FC07E03B460122FF21A5
:100880000846CDE9004501F0EFFC16E00D48007880
:1008900048B1CDE9004571793B460122FF2001F0C6
:1008A000E3FC08E008E03B460122FF210846CDE9D1
:1008B000004501F0D9FC00E000BF00BFBDE8FC87A7
:1008C000A8000020A40000208400002010B501F042
:1008D0000DFC0446032C06D0042C53D0052C78D0F4
:1008E000072C77D1E2E07C48007818BB7B48C078C1
:1008F00001280DD17A480078401C40B27849087030
:10090000084690F9000017283BDD0020087038E009
:1009100072480079012834D172480078401C40B2F6
:1009200070490870084690F90000172829DD00205A
:10093000087026E068480078012822D16748C0780E
:1009400001280DD166484078401C40B26449487087
:10095000084690F901003B2813DD0020487010E0A4
:100960005E48007901280CD15E484078401C40B2B6
:100970005C494870084690F901003B2801DD0020E1
:100980004870A7E05448007828BB5448C078012834
:100990000DD153480078401E40B2514908700846B6
:1009A00090F9000000283DDA172008703AE04B4823
:1009B0000079012836D14B480078401E40B24949A1
:1009C0000870084690F9000000282BDA17200870FC
:1009D00028E028E07DE040480078012822D13F4807
:1009E000C07801280DD13E484078401E40B23C49B5
:1009F0004870084690F90100002813DA3B2048703F
:100A000010E03648007901280CD136484078401E65
:100A100040B234494870084690F90100002801DAD4
:100A20003B20487056E02C480078401C2A4908704A
:100A300008460078022838D12B49087800EBD0719D
:100A40004910A0EB410171B92448C078012802D1B6
:100A50002549087024E021480079012820D103208D
:100A6000214908701CE02048007801280AD11B4861
:100A70000079012814D105201B490870012017496D
:100A8000C8700DE018480078032809D11348C078D1
:100A9000012805D105201449087001200F4908716B
:100AA0000020124908700C49087013E00B48C07808
:100AB000012805D100200949C8700120087107E00C
:100AC00006480079012803D10449C8700020087144
:100AD00000E000BF00BF10BD850000207D000020A9
:100AE0008E00002092000020AC0000207C0000203E
:100AF00010B501F0FBFA0446092C7DD2DFE804F0C2
:100B00007C050E252E32364173003D48007808B929
:100B1000012000E000203A4908706EE001203949C8
:100B200008700020364908703748407A01280BD1F8
:100B30003548007A012807D1334800790C3040B29B
:100B4000314908710020487257E02D48807808B973
:100B5000012000E000202A4988704EE00320294946
:100B600008704AE003202749087046E00220254922
:100B700008700020224908700120C8700020087108
:100B80003BE022480078401C20490870087800EBC0
:100B9000D0714910A0EB410121B900201849C8705B
:100BA00008711EE019480078012802D11449C87064
:100BB00017E016480078032803D101201049087176
:100BC0000FE012480078052804D101200C49C870B4
:100BD000087106E00D480078052802DD00200B4969
:100BE00008700AE008E00648407908B9012000E0F2
:100BF00000200349487100E000BF00BF10BD0000A5
:100C00007D0000207C0000206C460020AC0000200D
:100C100070B501F0DDFA054601F0E8FA044601F08E
:100C2000F3FA064636B901201649087002F030FD85
:100C300015490860012D20D1012C03D10120134951
:100C400008701DE0E4B90F48007890B102F020FD73
:100C50000D490968401A41F28831884203D80120C1
:100C60000A4908700CE0002008490870054908701E
:100C700006E000200549087002E0002003490870E2
:100C800070BD0000AD000020B00000208D000020ED
:100C900010B501F02BFA0446012C7CD0032C02D0B5
:100CA000042C79D156E06548007878B9644800880A
:100CB000401C634908800846008840F6330188429A
:100CC00047DD4FF4FA605E49088042E05B480078F7
:100CD00001280BD15A488078401C59498870084631
:100CE00080780C2835DD0120887032E05348007888
:100CF00002280BD15248C078401C5149C8700846A0
:100D0000C0781F2825DD0120C87022E04B480078FC
:100D100003280DD14A480079401C40B24849087167
:100D2000084690F90400172813DD0020087110E030
:100D30004248007804280CD141484079401C40B218
:100D40003F494871084690F905003B2801DD002025
:100D5000487171E03948007868B939480088401E08
:100D60003749088008460088B0F5FA6F48DA40F63F
:100D70003300088044E03148007801280DD1304824
:100D80008078401E2E49887008468078012837DA1E
:100D90000C20887034E034E04DE0284800780228C8
:100DA0000BD12748C078401E2549C8700846C07836
:100DB000012825DA1F20C87022E020480078032887
:100DC0000DD11F480079401E40B21D4908710846E8
:100DD00090F90400002813DA1720087110E0174872
:100DE000007804280CD116484079401E40B21449BE
:100DF0004871084690F90500002801DA3B20487147
:100E00001AE00E480078401C0C490870084600782B
:100E100005280FD100200B4908700B4800780849BD
:100E200048720948407808720846FFF7A9FA00207E
:100E30000249087000E000BF00BF10BD8400002020
:100E40006C4600207C0000207D00002000BFFEE7F3
:100E5000704772B600BFFEE72DE9F847034600224F
:100E600094466EE14FF0010808FA02F4D1F80080D0
:100E700008EA0400A0427DD1DFF8DCA2D1F80480AA
:100E8000A8EB0A09D0453AD014DCB8F1030F50D0D2
:100E900009DCB8F1000F31D0B8F1010F1CD0B8F166
:100EA000020F49D120E0B8F1110F18D0B8F1120F9C
:100EB00042D11EE0B9F5881F25D006DCB9F5803F88
:100EC00020D0B9F5801F37D11AE0B9F5001F18D02E
:100ED000B9F5041F30D117E0D1F80CC02DE0D1F8DE
:100EE0000C8008F1040C28E0D1F80C8008F1080C03
:100EF00023E0D1F80C8008F10C0C1EE000BF00BF0D
:100F000000BF00BF00BF00BFD1F80880B8F1000FDC
:100F100002D14FF0040C0BE0D1F80880B8F1010FBA
:100F200003D14FF0080C1C6102E04FF0080C5C612B
:100F300003E04FF0000C00E000BF00BFFF2801D825
:100F4000984601E003F104084646FF2802D84FEA1C
:100F5000820803E0A2F108084FEA88084746D6F85D
:100F600000804FF00F0909FA07F928EA09080CFA7E
:100F700007F900E088E048EA0908C6F80080D1F8DF
:100F8000048008F08058B8F1805F7DD100BFDFF8A1
:100F9000CC81D8F8188048F00108DFF8C091C9F872
:100FA0001880C846D8F8188008F00108CDF80080ED
:100FB00000BF00BF4FEAB9384FEA920958F82950EC
:100FC0004FEA82784FEA18794FF00F0808FA09F8CB
:100FD00025EA0805DFF88881434502D14FF0000873
:100FE00016E0DFF88081434502D14FF001080FE0A1
:100FF000DFF87481434502D14FF0020808E0DFF8C2
:101000006C81434502D14FF0030801E04FF0040822
:101010004FEA82794FEA197908FA09F848EA050592
:10102000DFF84C814FEA920948F82950D1F8048042
:1010300008F48018B8F5801F0AD1DFF83881D8F895
:10104000008048EA0008DFF82C91C9F8008009E028
:10105000DFF82081D8F8008028EA0008DFF8149132
:10106000C9F80080D1F8048008F40018B8F5001F12
:1010700010D1DFF8008108F10408D8F8008048EAB0
:101080000008DFF8F09000E05AE009F10409C9F81F
:1010900000800DE0DFF8DC8008F10408D8F800805B
:1010A00028EA0008DFF8CC9009F10409C9F80080AB
:1010B000D1F8048008F40038B8F5003F0ED1DFF80D
:1010C000B480A8F10408D8F8008048EA0008DFF8E6
:1010D000A490A9F10409C9F800800DE0DFF894801C
:1010E000A8F10408D8F8008028EA0008DFF8849006
:1010F000A9F10409C9F80080D1F8048008F4803807
:10110000B8F5803F0ED1DFF86C80A8F10808D8F858
:10111000008048EA0008DFF85C90A9F10809C9F8E6
:1011200000800DE0DFF84C80A8F10808D8F80080B6
:1011300028EA0008DFF83C90A9F10809C9F8008006
:10114000521CD1F8008028FA02F8B8F1000F7FF4A1
:1011500089AEBDE8F88700000000111000100240C1
:1011600000080140000C0140001001400014014043
:101170000800014008040140024693680B400BB18F
:10118000012000E0002070470AB1016101E00B047A
:1011900003617047014800687047000000000020AC
:1011A000034800680349097808440149086070470A
:1011B000000000200800002010B50848006840F03A
:1011C000100006490860032000F098F80F2000F096
:1011D00007F800F02BF8002010BD000000200240AE
:1011E00070B504460E4800784FF47A71B1FBF0F008
:1011F0000C490968B1FBF0F5284600F0E9FB08B19D
:10120000012070BD102C07D200222146501E00F094
:1012100037F80548046001E00120F2E70020F0E71C
:10122000080000200C0000200400002008B500BFCA
:101230001148806940F001000F49886108468069C3
:1012400000F00100009000BF00BF00BF0846C06969
:1012500040F08050C8610846C06900F0805000909E
:1012600000BF00BF00BF0549486820F0E06040F0C3
:101270000070486000BF08BD00100240000001403F
:101280002DE9F05F80460D461646002701F016FB5B
:10129000074639462A46334601F00700C0F1070ADF
:1012A000BAF1040F02D94FF0040A01E0C0F1070AB5
:1012B000D14600F1040ABAF1070F02D24FF0000A3A
:1012C00001E0A0F1030AD4464FF0010A0AFA09FA34
:1012D000AAF1010A0AEA020A0AFA0CFA4FF0010B13
:1012E0000BFA0CFBABF1010B0BEA030B4AEA0B0404
:1012F0002146404601F0EAFABDE8F09F00BF00F049
:101300000702064B19684FF6FF031940044B0B43C5
:1013100043EA0221014B196000BF70470CED00E069
:101320000000FA0570B504460D460CB9012070BDE9
:101330005A48006800F00700A8420ED257480068DB
:1013400020F007002843554908600846006800F06F
:101350000700A84201D00120E9E7207800F0020050
:1013600002281DD1207800F00400042805D14C4843
:10137000406840F4E0604A494860207800F0080086
:10138000082805D14648406840F460504449486008
:101390004348406820F0F000A16808434049486095
:1013A000207800F0010078B36068012806D13C483D
:1013B000006800F4003090B90120B8E760680228A6
:1013C00006D13748006800F0007040B90120AEE750
:1013D0003348006800F0020008B90120A7E7304850
:1013E000406820F00300616808432D494860FFF71A
:1013F000D1FE064609E0FFF7CDFE801B41F28831A1
:10140000884202D9032092E707E02548406800F0AF
:101410000C006168B0EB810FEDD12048006800F04E
:101420000700A8420ED91D48006820F00700284395
:101430001A4908600846006800F00700A84201D079
:10144000012074E7207800F00400042807D1144834
:10145000406820F4E060E168084311494860207862
:1014600000F00800082808D10D48406820F46050BA
:10147000216940EAC1000A49486000F03FF8084984
:101480004968C1F30311074A515CC8400649086026
:1014900006480068FFF7A4FE002048E7002002404D
:1014A000001002409A3900080C00002004000020BF
:1014B00001480068704700000C00002000B5FFF7ED
:1014C000F7FF04494968C1F30221034A515CC8404F
:1014D00000BD000000100240AA39000800B5FFF767
:1014E000E7FF04494968C1F3C221034A515CC8407F
:1014F00000BD000000100240AA39000870B50021AC
:101500000022002400230020134D696801F00C051F
:10151000F5B1042D02D0082D19D101E00F4819E0D2
:101520000F4DC1F38346AB5D01F4803555B10A4DD3
:101530006D68C5F340450B4E725D084D5D43B5FBCC
:10154000F2F402E0084D03FB05F4204602E000BF80
:10155000024800BF00BF70BD0010024000127A00B8
:10156000883900089839000800093D00F8B504469C
:101570000CB90120F8BD207800F00100002878D0D7
:10158000F848406800F00C0004280CD0F54840688A
:1015900000F00C00082811D1F248406800F48030B7
:1015A000B0F5803F0AD1EF48006800F40030002811
:1015B0005FD0606800285CD10120DBE700BF606875
:1015C000B0F5803F06D1E748006840F48030E54937
:1015D000086028E0606858B9E248006820F480306C
:1015E000E04908600846006820F4802008601AE09E
:1015F0006068B0F5A02F0BD1DA48006840F4802075
:10160000D84908600846006840F4803008600AE065
:10161000D448006820F48030D24908600846006849
:1016200020F48020086000BF606888B1FFF7B2FD39
:10163000054606E0FFF7AEFD401B642801D90320F4
:1016400098E7C848006800F400300028F2D010E0A5
:10165000FFF7A0FD054606E0FFF79CFD401B642850
:1016600001D9032086E7BF48006800F40030002855
:10167000F2D1207800F00200022857D1B948406822
:1016800000F00C0050B1B748406800F00C0008288A
:1016900018D1B448406800F4803098B9B148006867
:1016A00000F0020020B12069012801D0012061E78B
:1016B000AC48006820F0F800616940EAC100A9491F
:1016C000086033E02069E8B10120A7490860FFF70E
:1016D00061FD054606E0FFF75DFD401B022801D9CC
:1016E000032047E79F48006800F002000028F2D07E
:1016F0009C48006820F0F800616940EAC1009949FF
:10170000086013E0002098490860FFF743FD054694
:1017100006E0FFF73FFD401B022801D9032029E71F
:101720009048006800F002000028F2D1207800F014
:10173000080008282DD1A069B8B101208B490860A4
:10174000FFF728FD054606E0FFF724FD401B0228B1
:1017500001D903200EE78348406A00F00200002808
:10176000F2D0012000F04CFF13E000207F49086018
:10177000FFF710FD054606E0FFF70CFD401B0228B1
:1017800001D90320F6E67748406A00F002000028FD
:10179000F2D1207800F00400042873D100277148AA
:1017A000C06900F0805070B900BF6E48C06940F059
:1017B00080506C49C8610846C06900F080500090B4
:1017C00000BF00BF01276A48006800F48070B0B90C
:1017D0006748006840F4807065490860FFF7DAFCEC
:1017E000054606E0FFF7D6FC401B642801D903201C
:1017F000C0E65F48006800F480700028F2D000BFA7
:10180000E068012806D15748006A40F001005549B8
:10181000086227E0E06858B95248006A20F00100E9
:10182000504908620846006A20F00400086219E086
:10183000E06805280BD14B48006A40F00400494994
:1018400008620846006A40F0010008620AE0454864
:10185000006A20F00100434908620846006A20F04F
:101860000400086200BFE068A0B1FFF793FC0546E2
:1018700009E0FFF78FFC401B41F28831884202D912
:10188000032077E622E03748006A00F002000028D3
:10189000EFD012E0FFF77EFC054608E0FFF77AFC88
:1018A000401B41F28831884201D9032062E62D486D
:1018B000006A00F002000028F0D1012F05D129486C
:1018C000C06920F080502749C86100BFE069C8B3F3
:1018D0002448406800F00C00082860D0E069022825
:1018E00048D1002020490866FFF754FC054606E071
:1018F000FFF750FC401B022801D903203AE61948A3
:10190000006800F000700028F2D1206AB0F5803F36
:1019100007D11448406820F40030A16808431149F9
:101920004860D4E9080108430E49496821F474115C
:1019300008430C49486001200B490866FFF72AFC60
:10194000054607E03DE0FFF725FC401B022801D9D2
:1019500003200FE60348006800F000700028F2D072
:101960002FE000000010024000004242800442428A
:1019700000700040002014490866FFF70BFC054684
:1019800006E0FFF707FC401B022801D90320F1E520
:101990000E48006800F000700028F2D111E0E06904
:1019A000012800D1E6E50948466806F48031206A3E
:1019B000814204D106F47011606A814201D0012095
:1019C000D8E50020D6E500000000424200100240A9
:1019D00070B504462546681EB0F1807F01D3012012
:1019E0000FE0681E4FF0E02148610F214FF0FF30FB
:1019F00000F06CFF00204FF0E021886107200861B3
:101A0000002070BD10B504460CB9012010BDA069BE
:101A100000B100E000BF94F8410028B9002084F82C
:101A20004000204600F02AF8242084F84100206875
:101A3000C06820F400502168C860204600F068FEAD
:101A40002068006920F4904021680861206840699E
:101A500020F02A00216848612068C06840F40050E6
:101A60002168C86000206064202084F8410084F868
:101A700042000020606300BFC8E7000010B586B0D8
:101A80000446002002900390049005901A492068B3
:101A900088422ED100BF1948806940F48040174920
:101AA00088610846806900F48040019000BF00BF53
:101AB00000BF0846806940F00400886108468069DC
:101AC00000F00400019000BF00BF48150290022002
:101AD00003900320059002A90948FFF7BDF94FF4D0
:101AE0008060029000200390049002A90448FFF750
:101AF000B3F906B010BD00000038014000100240EC
:101B0000000801402DE9F84F04460E461746994655
:101B10004FF0000A94F84100202850D106B117B9BF
:101B20000120BDE8F88F00206064212084F8410086
:101B3000FFF730FB8246A784E784A068B0F5805F9A
:101B400004D1206910B90025B04602E035464FF0B7
:101B500000081EE05346002280212046CDF8009068
:101B600000F054FE20B1202084F841000320D8E783
:101B700045B9B8F80000C0F308002168486008F1D2
:101B8000020803E02878216848606D1CE08C401E44
:101B9000E084E08C0028DDD153460022402120461D
:101BA000CDF8009000F032FE20B1202084F84100F2
:101BB0000320B6E7202084F841000020B1E702208E
:101BC000AFE700BFFEE700002DE9F05F074688465B
:101BD0004FF0000BD94600224FF400414D48FFF76B
:101BE000D3FA142001F054FC0122D1034948FFF735
:101BF000CBFA6FF07F4500BF4FF400414548FFF737
:101C0000BBFA012803D1281EA5F10105F4D100BFBC
:101C10004FF400413F48FFF7AFFA18B9281EA5F16D
:101C20000105F5D100BF4FF400413A48FFF7A4FA8F
:101C3000012803D1281EA5F10105F4D135B93322BD
:101C400035A13BA000F02AFEBDE8F09F01F0CCFBDF
:101C500000242BE000203D490855002623E000BF6A
:101C60004FF400412B48FFF787FA0028F8D02820CE
:101C700000F050F94FF400412648FFF77DFA0128A3
:101C800010D13248005DC6F107020121914008439E
:101C90002E49085500BF4FF400411E48FFF76CFA6B
:101CA0000128F8D0761C082ED9DB641C052CD1DB6A
:101CB0002648007825494978084424498978084409
:101CC0002249C97800EB010A0AF0FF001F4909798F
:101CD000884215D11D4800784FFA80FB1B48807858
:101CE0004FFA80F91948C07800F0800018B1C9F1A6
:101CF00000004FFA80F988F800B087F8009004E0FF
:101D0000692205A112A000F0C9FD01F07FFB00BF10
:101D10009AE70000000C0140696E746572666163A9
:101D2000655C496E665F44485431312E63000000A3
:101D30005B25733A25645D204448543131CFECD3A0
:101D4000A6B3ACCAB10D0A0D0A000000B400002011
:101D50005B25733A25645D204448543131CAFDBE89
:101D6000DDD0A3D1E9CAA7B0DC0D0A0D0A0000003E
:101D700010B50122D1030448FFF706FA4FF47A7038
:101D800001F086FB10BD0000000C014070B5054657
:101D900045F001050026002204212B48FFF7F4F945
:101DA000002201212848FFF7EFF9012204212648EB
:101DB000FFF7EAF9052000F0ADF800241DE001204E
:101DC000A040284028B1012202211F48FFF7DCF97A
:101DD00004E0002202211C48FFF7D6F90122114637
:101DE0001948FFF7D1F9012000F094F800220121F1
:101DF0001548FFF7C9F9601C44B2082CDFDB01224B
:101E000002211148FFF7C0F9002414E002210E4816
:101E1000FFF7B2F9A0403043C6B2072C09DA01221D
:101E200011460948FFF7B0F9002201210648FFF7E3
:101E3000ABF9601C44B2082CE8DB00220421024804
:101E4000FFF7A2F9304670BD0008014070B50446A6
:101E50000E4604F0FE04002204212D48FFF794F9F9
:101E6000002201212A48FFF78FF901220421284886
:101E7000FFF78AF9052000F04DF800251DE001204C
:101E8000A840204028B1012202212148FFF77CF917
:101E900004E0002202211E48FFF776F901221146D4
:101EA0001B48FFF771F9012000F034F800220121EE
:101EB0001748FFF769F9681C45B2082DDFDB0025DC
:101EC0001DE00120A840304028B101220221104825
:101ED000FFF75AF904E0002202210D48FFF754F9F8
:101EE000012211460A48FFF74FF9012000F012F8CD
:101EF000002201210648FFF747F9681C45B2082D6A
:101F0000DFDB002204210248FFF73EF970BD00002C
:101F100000080140C10000E000BF0A1EA1F101015C
:101F2000FAD1704710B500224FF400710148FFF755
:101F30002BF910BD000C014010B501220821044806
:101F4000FFF722F9012210210148FFF71DF910BD0A
:101F5000000C01402DE9F04105460E4690461F4613
:101F600000241BE04FF00040E040384028B101223F
:101F700080211F48FFF708F904E0002280211C4857
:101F8000FFF702F9012240211948FFF7FDF800226E
:101F900040211748FFF7F8F8601CC4B2202CE1DBA1
:101FA000012220211248FFF7EFF8002220211048DB
:101FB000FFF7EAF82A464FF400610E48FFF7E4F80D
:101FC00032464FF480510B48FFF7DEF842464FF49B
:101FD00000410848FFF7D8F8002208210448FFF71D
:101FE000D3F8002210210248FFF7CEF8BDE8F081B7
:101FF000000C01400008014010B54FF4FA7001F0E8
:1020000047FA10BD70B50546012210212148FFF79F
:10201000BBF8002210211F48FFF7B6F8042001F09A
:1020200037FA00242AE00120A040284090B1012284
:1020300010211848FFF7A8F84FF49660FFF76AFFE1
:10204000002210211348FFF79FF84FF4C870FFF7E4
:1020500061FF11E0012210210E48FFF795F84FF4BF
:10206000C870FFF757FF002210210A48FFF78CF8CD
:102070004FF49660FFF74EFF601CC4B2082CD2DB11
:10208000012210210348FFF77FF8642001F000FAD5
:1020900070BD00000008014010B50446072C00DDAB
:1020A000072404F1E001C8B2FFF7ACFF10BD70B522
:1020B00004460D4629462046FFF75EF898B90A20E7
:1020C00001F0E6F929462046FFF756F858B902E034
:1020D000012001F0DDF929462046FFF74DF80028E0
:1020E000F6D0012070BD0020FCE7000070B5012192
:1020F0003548FFF7DCFF012801D1032070BD022124
:102100003148FFF7D4FF012801D10420F6E74FF44E
:1021100080712E48FFF7CBFF012801D10820EDE7A1
:1021200080212A48FFF7C3FF012801D10720E5E7F6
:1021300004212548FFF720F8F8B90A2001F0A8F992
:1021400004212148FFF718F8B8B901F0A1FA0546B3
:1021500002E0012001F09CF904211B48FFF70CF874
:102160000028F6D001F094FA441B40F6B8308442BF
:1021700001D30220C2E70120C0E740211348FEF747
:10218000FBFFF8B90A2001F083F940210F48FEF760
:10219000F3FFB8B901F07CFA054602E0012001F036
:1021A00077F940210948FEF7E7FF0028F6D001F053
:1021B0006FFA441B40F6B830844201D306209DE7F5
:1021C00005209BE7002099E7000C01400008014032
:1021D00010B54FF480610448FEF7CEFF012800D10E
:1021E00010BD0020FCE70000000C014010B54FF4CA
:1021F00000610448FEF7C0FF012800D110BD002097
:10220000FCE70000000C014010B54FF400510448F9
:10221000FEF7B2FF08B9002010BD0120FCE7000066
:10222000000C014010B54FF480410E48FEF7A4FFAA
:1022300050B9642001F02CF94FF480410948FEF7B1
:102240009BFF68B9012010BD642001F021F94FF413
:1022500080410448FEF790FF012801D10020F2E7F9
:102260000020F0E7000C01402DE9FF4F83B0044649
:102270000F469A46119D4FF0380B0A209AFBF0F05A
:102280006F4931F810000A219AFBF1F201FB12A10B
:102290006C4A32F81110084400F5804080B2029078
:1022A000002001908046287830B1687810B14FF452
:1022B000004801E04FF480480598D0B1632C04DD5C
:1022C00008F1200080B201902AE00A2094FBF0F08F
:1022D0005D4931F810000A2194FBF1F201FB124133
:1022E0005A4A32F8111008444044203080B201901C
:1022F00016E0632C02DDCDF8048011E00A2094FB87
:10230000F0F0514931F810000A2194FBF1F201FB81
:1023100012414E4A32F811100844404480B20190F4
:10232000687920B1029800F5004080B20290DDE9A2
:10233000010140EA0143012211460020FFF70AFE95
:10234000052001F0A5F8109E00200090A87818B193
:102350004FF4804000900AE04FF400400090109845
:1023600000EBC000052190FBF1F0203046B2002EBA
:1023700003DA704246B20BF1020B632E04DDA6F1C4
:10238000640046B20BF1050B0A2096FBF0F03049D1
:1023900031F810000A2196FBF1F201FB12612D4A7F
:1023A00032F8111001440098084480B20290632F63
:1023B00002DD0020019010E00A2097FBF0F0264992
:1023C00031F810000A2197FBF1F201FB1271234A48
:1023D00032F81110084480B201904FF00009E878FB
:1023E00018B109F580401FFA80F9287918B109F56C
:1023F00000401FFA80F90198484480B20190DDE95D
:10240000010140EA0143012200211046FFF7A2FD2D
:10241000052001F03DF84FEA0B4300220121084658
:10242000FFF798FD052001F033F8A87928B10022C4
:102430004FF480710A48FEF7A7FE07B0BDE8F08FA1
:10244000260100203A010020BC000020C20000202C
:10245000FE00002012010020D6000020EA0000202B
:10246000000C014000B585B000200190029003905F
:10247000049000BF4F48806940F020004D498861BA
:102480000846806900F02000009000BF00BF00BF38
:102490000846806940F0040088610846806900F0C1
:1024A0000400009000BF00BF00BF0846806940F0F4
:1024B000080088610846806900F00800009000BFAD
:1024C00000BF002205213C48FEF75EFE012249F6CE
:1024D00032013948FEF758FE012249F218313748D7
:1024E000FEF752FE0022E0213448FEF74DFE49F689
:1024F00035000190012002900020039003200490F9
:1025000001A92D48FEF7A8FC02200190112002909D
:10251000002003900320049001A92748FEF79CFCAB
:102520004FF4E4700190002002900120039001A973
:102530002148FEF791FC40F60740019000200290F0
:102540000120039001A91D48FEF786FC4FF480503E
:10255000019001200290002003900220049001A924
:102560001648FEF779FC4FF4C0400190002002901D
:10257000039001A91148FEF76FFC4FF40040019051
:1025800011200290002003900320049001A90B4821
:10259000FEF762FC4FF47E70019001200290002053
:1025A00003900320049001A90448FEF755FC05B0F0
:1025B00000BD00000010024000080140000C014076
:1025C00010B50B480B4908604FF4E130486000211A
:1025D00008488160C16001610C2141610021816175
:1025E000C161FFF70FFA08B1FEF733FC10BD000020
:1025F000003801405C01002000BFFEE700BFFEE79D
:1026000008B508490968C9084FF47A72B1FBF2F1BC
:102610004143009100BF00BF00994A1E009200296B
:10262000F9D108BD0C00002010B501F021F80128F7
:1026300001D000F0CFFFFEF7B3FD10BD00B58FB0A5
:10264000282105A8FDF7C1FD14216846FDF7BDFD51
:1026500001200590000406900020079001200990B9
:1026600002200C90C1030D914FF4E0110E9105A8CA
:10267000FEF77CFF08B1FEF7ECFB0F200090022074
:102680000190002002904FF480600390002004909D
:1026900002216846FEF746FE08B1FEF7DAFB0FB0EE
:1026A00000BD704700BF00BF02680C3252E8002F27
:1026B00022F4907102680C3242E80013002BF3D12F
:1026C00000BF00BF00BF0268143252E8002F22F0A2
:1026D00001010268143242E80013002BF3D100BF5D
:1026E000016B01290ED100BF00BF02680C3252E815
:1026F000002F22F0100102680C3242E80013002B78
:10270000F3D100BF202180F84210002101637047FF
:1027100070B504462168096921F44051E26811430B
:10272000226811612269A1681143626941EA0205C8
:102730002168C96841F20C62914329432268D16043
:102740002168496921F44071A269114322685161ED
:102750002D4A2168914202D1FEF7C0FE01E0FEF74A
:10276000ADFE00EBC00101EB001162689200B1FB0D
:10277000F2F100EBC00202EB001263689B00B2FBB7
:10278000F3F26423B2FBF3F202EBC20303EB021297
:10279000A1EB8201322202EB01116422B1FBF2F1C2
:1027A00001F0F00100EBC00202EB001263689B0035
:1027B000B2FBF3F26423B2FBF3F201EB021200EB83
:1027C000C00101EB001163689B00B1FBF3F100EB6A
:1027D000C00303EB00136668B600B3FBF6F3642690
:1027E000B3FBF6F303EBC30606EB0313A1EB830184
:1027F000322303EB01116423B1FBF3F101F00F016C
:1028000011442268916070BD003801402DE9F84301
:1028100004460D4617469846089E31E0701C70B37A
:10282000FEF7B8FCA0EB0800B04200D816B90320B0
:10283000BDE8F8832068C06800F00400F8B1802D7E
:102840001ED0402D1CD020680068C0F3C000B0B17D
:1028500000BF002000902068006800902068406859
:10286000009000BF00BF2046FFF71CFF08206064F7
:1028700000BF002084F8400000BF0120D8E7FFE738
:10288000206800682840A84201D1012000E0002013
:10289000B842C3D00020CBE700BFFEE70FB4054B22
:1028A00010B503A9044A029800F034F810BC5DF892
:1028B00014FB0000CD2A00085801002002480068DF
:1028C000C0F30220704700000CED00E010B50028B6
:1028D00004DB0A07130E054A135406E00A07140E18
:1028E000034A00F00F031B1FD45410BD00E400E0A6
:1028F00018ED00E002E008C8121F08C1002AFAD152
:1029000070477047002001E001C1121F002AFBD16F
:10291000704700002DE9FF4F8BB09A460F460546E1
:10292000002606E025280BD052460D9990476D1CD5
:10293000761C28780028F5D10FB03046BDE8F08F1E
:102940000024A0460122604900E0044315F8013F3D
:10295000203B02FA03F00842F7D128782E2817D13D
:1029600015F8010F44F004042A280ED06FF02F024E
:102970002878A0F1300109290AD808EB880102EB78
:10298000410100EB01086D1CF2E757F8048B6D1C48
:10299000287869283ED006DC0028CDD063280BD0EB
:1029A000642804D136E0732810D075284BD05246E5
:1029B0000D999047761C85E017F8040B8DF8000000
:1029C00000208DF80100E946012003E057F8049B40
:1029D0004FF0FF3061074FF0000401D40AE0641C9F
:1029E00044450DDA8442FADB19F804100029F6D1C7
:1029F00006E0641C8442FCDB19F804100029F8D1BD
:102A0000264404E019F8010B52460D999047641EC4
:102A1000F8D257E001CF4FF00A0B002802DA40420B
:102A20002D2102E0210504D52B218DF82410012150
:102A300003E0E10705D02021F7E70DF12009089117
:102A40000CE00021F9E701CF4FF00A0BF9E75946F6
:102A5000FDF7C6FB01F1300209F8012D0028F6D17F
:102A6000ADEB090000F1200B600701D44FF0010825
:102A7000D84502DDA8EB0B0000E0002080460024D2
:102A800006E009A85246005D0D999047641C761C2B
:102A900008988442F5DB04E0302052460D999047B7
:102AA000761CB8F10001A8F10108F5DC05E019F881
:102AB000010B52460D999047761CBBF10001ABF11A
:102AC000010BF4DC6D1C34E70928010013B50C463A
:102AD0004FF6FF73012269460248FFF713F800988A
:102AE0001CBD00005C010020FEF766FBFFF7A6FDA1
:102AF000FFF7B8FCFFF764FDFDF722FD00BFFEE71E
:102B00002DE9F04105460E4626480768264800682C
:102B1000001D00F02BFC50B92348006890F82C10E1
:102B20000120884021490968814320480160681CD0
:102B3000D8B9D6B11E4948681B49096888601A4946
:102B400082680968CA6018490968091D826851606D
:102B500015490968091D8160154A134909684A61C8
:102B600011460968491C11601AE07C190E4800687A
:102B70004460BC4207D20C480168091D0D4800683A
:102B800000F018FC0CE008480168091D0A480068BC
:102B900000F010FC09480068844201D20748046034
:102BA000BDE8F08124000020100000202800002053
:102BB00058020020180000201400002040000020CF
:102BC00010B5044600F010FC2F480068401C2E4948
:102BD00008602E48006840B92C4804600846006828
:102BE00001280DD100F016F90AE02948006838B92B
:102BF00026480068C06AE16A884201D82348046018
:102C000024480068401C2349086094F82C100120D7
:102C100088402149096808431F490860E16A01EBBF
:102C200081011E4A02EB81014868A0608268E2606F
:102C3000211D826851608160E16A01EB8101174AC0
:102C400002EB81026261E16A01EB8101134A52F8F1
:102C50002110491CE26A02EB8202104B43F8221059
:102C600000F0D4FB0A48006868B108480068C06AF0
:102C7000E16A884207D24FF0805009490860BFF3EB
:102C80004F8FBFF36F8F10BD200000201000002079
:102C90002C0000203C00002028000020A40100207F
:102CA00004ED00E010B516E000F09EFB0C48C06893
:102CB000C468201D00F05AFB0A480068401E0949FC
:102CC000086009480068401E0749086000F09EFB44
:102CD000204600F00BF8044800680028E4D110BD3D
:102CE00044020020200000201C00002010B50446F3
:102CF000206B00F09BFB204600F098FB10BD00000D
:102D000030B54FF48843154800F007042CB1C01DBE
:102D100020F00700114C041B1B1B0246104C2260C4
:102D200000240F4D6C60D018083820F007000D4CBF
:102D3000206000240B4D2D686C600A4D2D682C60BE
:102D40001146441A4C60074C24680C60064D4C68D0
:102D50002C60064D4C682C6030BD00006C020020D9
:102D60005000002058000020600000205C0000207F
:102D700000BFFFF797FF064800680128F9D94FF018
:102D8000805004490860BFF34F8FBFF36F8FF0E7A7
:102D9000A401002004ED00E02DE9FF5F80460E460F
:102DA0009146DDE90E7A109CA9F10100216B01EB3F
:102DB000800B2BF0070B7EB1002507E0715D04F15D
:102DC00034004155705D00B902E06D1C102DF5D343
:102DD00000BF002143200155052F00D30427E762DF
:102DE000201D00F0E4FA04F1180000F0E0FA24617C
:102DF000C7F10500A061646241465846039A00F09D
:102E000007F92060BAF1000F01D0CAF80040BDE810
:102E1000FF9F000010B5002407E004EB84010F4A77
:102E200002EB810000F0B6FA641C052CF5D30C48C7
:102E300000F0B0FA0B4800F0ADFA0B4800F0AAFA27
:102E40000A4800F0A7FA0A4800F0A4FA0448094921
:102E5000086004480849086010BD0000A401002073
:102E6000080200201C020020300200204402002042
:102E700058020020140000201800002010B5014660
:102E8000164800E0006803688B42FBD302464368A3
:102E900013448B4204D143684C6823444360014689
:102EA0000A464B6813440468A34211D10C4C0368D2
:102EB0002468A34208D04B680468646823444B60CC
:102EC00003681B680B6005E0054B1B680B6001E0A5
:102ED00003680B60884200D0016010BD50000020E4
:102EE0005800002009480068006808B9012000E087
:102EF000002020B14FF0FF300549086005E003488D
:102F00000068C0680068024908607047140000202B
:102F10004000002000BFBF2080F31188BFF34F8F17
:102F2000BFF36F8F00BF00BFFEE700002DE9F04741
:102F300005464FF0000900F0FBFA3048006808B978
:102F4000FFF7DEFE75B105F00700C0F11008C8F10B
:102F5000FF30A84201D2012000E0002008B945441A
:102F600000E00025012000EBE570002841D0002D95
:102F70003FD02348006885423BD8224E3046046843
:102F800001E0264624686068A84202D22068002832
:102F9000F7D11A48006884422BD0306800F1080944
:102FA000206830606068401B102807D96719606886
:102FB000401B786065603846FFF760FF1049606825
:102FC0000968081A0E490860084600680E49096831
:102FD000884203D20A4800680B490860606840F0E4
:102FE000004060600020206008480068401C0749DD
:102FF000086000F01BFC4846BDE8F0875800002040
:103000005C000020500000206000002064000020D0
:10301000001F4FF080730360001F21F00103036065
:10302000001F034B03601438026020387047000013
:10303000152F0008FEF7E0FF0024002598E04D481A
:10304000407918B14C48C079062866DA4B480078B8
:10305000002862D14748C078A8B3474890F90400D7
:10306000474991F90010884239D1434890F9050049
:10307000434991F90110884231D1424805784048CE
:10308000807830B90020FEF7BDFF01203C498870F0
:1030900025E03B488078012821D13948C078F0B933
:1030A000601CC4B2052C03DB0020FEF7ABFF00243C
:1030B00034480078854212D0FE20FEF7A3FF01209D
:1030C0002F49C8700BE0FFE72D488078012806D112
:1030D00000202B498870C870FE20FEF793FF25481A
:1030E0000079A8B3244890F90400274991F9001009
:1030F000884239D1204890F90500234991F90110FF
:10310000884231D11F4805781F48807830B90020A7
:10311000FEF778FF01201C49887025E01A48807866
:10312000012821D11848C078F0B9601CC4B2052C20
:1031300003DB0020FEF766FF00241248007885427A
:1031400012D0FE20FEF75EFF01200F49C8700BE091
:10315000FFE70D488078012806D100200A498870D1
:10316000C870FE20FEF74EFF4FF47A7000F090F921
:1031700065E700007D0000206C4600207C000020F8
:103180008E0000208C00002092000020FEF7F0FD51
:10319000092413E0601CC4B20A2C04DB0024084993
:1031A0000848FEF711FD08480078012802D00748BA
:1031B000FDF769F84FF47A7000F06AF9EAE7000069
:1031C00075000020740000207C0000206C46002068
:1031D000FDF714FA35E01B48007878B31A480078F8
:1031E00018B11948007803280AD1184B184890F9EB
:1031F0000020184890F900101748FDF709FA20E060
:103200001148007801280AD1104B114890F900208C
:10321000104890F900101048FDF7AEFA11E00A4886
:10322000007802280DD1094B094890F9002009487F
:1032300090F900100848FDF729FA02E0FFE7FEF7D1
:103240007BFEC8E78D0000207C0000207D00002070
:1032500074000020750000206C4600202BE016480A
:10326000007828B9FDF744FC322000F011F90CE099
:1032700011480078012802D1FDF70AFD05E00E484B
:103280000078022801D1FDF721FBFDF7C1FCFEF714
:10329000C9FF0446012C0AD108480078401C0749A0
:1032A000087008460078052801DB002008703220ED
:1032B00000F0EEF800BFD2E77C0000208C00002078
:1032C000FEF79AFE27490878FEF7E6FE632547E0F9
:1032D00025480078032840D1681CC5B2642D03DB63
:1032E0000020FEF78FFE0025FEF700FF0446032CAA
:1032F00004D0042C14D0052C2CD123E019480078DC
:10330000401C40B217490870084690F90000072891
:1033100001DD0720087013490878FEF7BDFE1AE0AA
:1033200010480078401E40B20E490870084690F9D7
:103330000000002801DA002008700A490878FEF72A
:10334000ABFE08E0002008490870FE20FEF75AFE98
:10335000632500E000BF00BF00BF322000F098F8F6
:10336000B6E700009C0000207C00002001460A69AE
:10337000D1E901309860D1E9010358605068884272
:1033800001D188685060002008611068401E1060FC
:103390001068704700F1080141604FF0FF31816013
:1033A00000F10801C1600161002101607047002146
:1033B0000161704710B502460B685C1C0CB91069BE
:1033C00007E002F1080000E04068446824689C427D
:1033D000FAD944684C604C68A160886041600A6119
:1033E0001468641C146010BD00BFBF2080F31188F6
:1033F000BFF34F8FBFF36F8F00BF03480068401CBF
:1034000001490860704700006C0000200648006811
:10341000401E054908600846006820B9002080F376
:10342000118800BF00BF70476C00002070B50646D1
:103430003546E6B1083D2C466068C00FB8B120683B
:10344000A8B9606820F00040606000F071F8084999
:10345000606809680844064908602046FFF70EFDC9
:1034600004480068401C0349086000F0DFF970BDA3
:103470005C0000206800002000204FF0E02108617F
:103480008861024848610720086170473F190100C0
:1034900070B50446002544B100F04AF800212046EA
:1034A000FFF72EFB00F0C2F905463DB94FF0805002
:1034B00003490860BFF34F8FBFF36F8F70BD0000EB
:1034C00004ED00E01CB5124800210B468022CDE936
:1034D000001010A1114800F097F80446012C14D1F7
:1034E00000BFBF2080F31188BFF34F8FBFF36F8FF2
:1034F00000BF4FF0FF300A49086001200949086009
:1035000000200949086000F04BF8084800681CBD1D
:103510004400002049444C4500000000712D000883
:10352000400000202C000020240000204800002043
:1035300002480068401C0149086070474C000020A8
:103540001248006818B10120114908601DE00020F0
:103550000F4908600F480068B0FA80F0C0F11F0101
:1035600001EB81020C4B03EB82004268526842601F
:1035700000F108024368934202D1426852684260F7
:103580004268D268054B1A6000BF70474C000020AB
:103590003400002028000020A4010020100000209A
:1035A00010B50A48006840F47F00084908600846E2
:1035B000006840F07F400860FFF75EFF002004498C
:1035C0000860FCF7AFFD002010BD000020ED00E01A
:1035D0006C00002010B500BFBF2080F31188BFF33E
:1035E0004F8FBFF36F8F00BF00F058F818B14FF046
:1035F00080500449086000BF002080F3118800BF9C
:1036000010BD000004ED00E02DE9FF4F85B08046BD
:1036100089461746DDE912ABB800FFF787FC06467E
:1036200076B14C20FFF782FC04462CB14C21204699
:10363000FCF7CBFD266304E03046FFF7F7FE00E021
:1036400000247CB10020CDE900ABCDE902403A4630
:1036500049464046089BFFF79FFB2046FFF7B0FA1C
:10366000012501E04FF0FF35284609B0BDE8F08F95
:103670000549096809B9012005E00449096809B943
:10368000022000E0002070472C0000204C000020A9
:103690000149086870470000240000202DE9F0412E
:1036A00000275748006800287ED156480068451C0E
:1036B000544805608DB95448D0F8008053480068DC
:1036C000514908605148C0F8008051480068401CCA
:1036D0004F490860FFF706FC00BF4E48006885426E
:1036E00076D300BF48480068006808B9012000E0B0
:1036F000002020B14FF0FF304649086067E04248A3
:103700000068C068C4686668B54202D24148066075
:103710005DE06069D4E902128A60D4E902214A605E
:10372000211D42688A4201D1E16841600022626144
:103730000168491E0160A06A98B1A06AD4E9071225
:103740008A60D4E907214A6004F1180142688A427C
:1037500001D1216A41600022A2620168491E016014
:1037600000BF94F82C10012088402B4909680843B9
:1037700029490860E16A01EB8101284A02EB8101D5
:103780004868A0608268E260211D826851608160A3
:10379000E16A01EB8101214A02EB81026261E16A87
:1037A00001EB81011D4A00E022E052F82110491C82
:1037B000E26A02EB8202194B43F822101849E06AD0
:1037C0000968C96A88428DD901278BE700E000BFEC
:1037D00013480068C06A00EB8000104951F82000CF
:1037E000012800D901270F48006800B1012704E033
:1037F0000D480068401C0C4908603846BDE8F0815F
:103800004C0000202400002014000020180000209C
:10381000380000204000002028000020A4010020E3
:1038200010000020340000203000002070B500247B
:103830000026FFF7D9FD4B480068401E4949086043
:103840000846006800287DD147480068002879D0E4
:103850005BE04648C068C468A06AD4E907128A6081
:10386000D4E907214A6004F1180142688A4201D173
:10387000216A41600022A2620168491E01606069FC
:10388000D4E902128A60D4E902214A60211D42680B
:103890008A4201D1E1684160002262610168491EEB
:1038A000016094F82C1001208840314909680843D0
:1038B0002F490860E16A01EB81012E4A02EB810188
:1038C0004868A0608268E260211D82685160816062
:1038D000E16A01EB8101274A02EB81026261E16A40
:1038E00001EB8101234A52F82110491CE26A02EBE4
:1038F0008202204B43F822101F49E06A0968C96A16
:10390000884202D301201D4908601848006808B9A0
:10391000012000E0002000289BD00CB1FFF7E2FA64
:103920001748056865B100BFFFF7B8FE10B1012068
:10393000124908606D1E002DF6D100201049086064
:103940000E4800E009E0006838B1012630070D4953
:103950000860BFF34F8FBFF36F8FFFF757FD3046FF
:1039600070BD00004C00002020000020300200202C
:1039700028000020A40100201000002034000020B6
:103980003000002004ED00E00203040506070809EA
:103990000A0B0C0D0E0F10100102000000000000B9
:1039A00000000102030406070809000000000102EC
:1039B00003040000D4390008000000205C0100006E
:1039C000300200081C3A00085C0100201C4900007D
:1039D0000429000841321042010339127A022304FB
:1039E0001AAA01F12977397B790EB1022105120655
:1039F000125B13801F1603802D8027380D3380360D
:103A0000803E8003803F80373F1A124F1266126D4E
:0C3A1000127D1207127F0A636F28E1008C
:04000005080000ED02
:00000001FF
